{
  "contractName": "FoxyClan",
  "abi": [
    {
      "inputs": [],
      "stateMutability": "nonpayable",
      "type": "constructor"
    },
    {
      "inputs": [],
      "name": "ERC721EnumerableForbiddenBatchMint",
      "type": "error"
    },
    {
      "inputs": [
        {
          "internalType": "address",
          "name": "sender",
          "type": "address"
        },
        {
          "internalType": "uint256",
          "name": "tokenId",
          "type": "uint256"
        },
        {
          "internalType": "address",
          "name": "owner",
          "type": "address"
        }
      ],
      "name": "ERC721IncorrectOwner",
      "type": "error"
    },
    {
      "inputs": [
        {
          "internalType": "address",
          "name": "operator",
          "type": "address"
        },
        {
          "internalType": "uint256",
          "name": "tokenId",
          "type": "uint256"
        }
      ],
      "name": "ERC721InsufficientApproval",
      "type": "error"
    },
    {
      "inputs": [
        {
          "internalType": "address",
          "name": "approver",
          "type": "address"
        }
      ],
      "name": "ERC721InvalidApprover",
      "type": "error"
    },
    {
      "inputs": [
        {
          "internalType": "address",
          "name": "operator",
          "type": "address"
        }
      ],
      "name": "ERC721InvalidOperator",
      "type": "error"
    },
    {
      "inputs": [
        {
          "internalType": "address",
          "name": "owner",
          "type": "address"
        }
      ],
      "name": "ERC721InvalidOwner",
      "type": "error"
    },
    {
      "inputs": [
        {
          "internalType": "address",
          "name": "receiver",
          "type": "address"
        }
      ],
      "name": "ERC721InvalidReceiver",
      "type": "error"
    },
    {
      "inputs": [
        {
          "internalType": "address",
          "name": "sender",
          "type": "address"
        }
      ],
      "name": "ERC721InvalidSender",
      "type": "error"
    },
    {
      "inputs": [
        {
          "internalType": "uint256",
          "name": "tokenId",
          "type": "uint256"
        }
      ],
      "name": "ERC721NonexistentToken",
      "type": "error"
    },
    {
      "inputs": [
        {
          "internalType": "address",
          "name": "owner",
          "type": "address"
        },
        {
          "internalType": "uint256",
          "name": "index",
          "type": "uint256"
        }
      ],
      "name": "ERC721OutOfBoundsIndex",
      "type": "error"
    },
    {
      "inputs": [
        {
          "internalType": "address",
          "name": "owner",
          "type": "address"
        }
      ],
      "name": "OwnableInvalidOwner",
      "type": "error"
    },
    {
      "inputs": [
        {
          "internalType": "address",
          "name": "account",
          "type": "address"
        }
      ],
      "name": "OwnableUnauthorizedAccount",
      "type": "error"
    },
    {
      "anonymous": false,
      "inputs": [
        {
          "indexed": true,
          "internalType": "address",
          "name": "owner",
          "type": "address"
        },
        {
          "indexed": true,
          "internalType": "address",
          "name": "approved",
          "type": "address"
        },
        {
          "indexed": true,
          "internalType": "uint256",
          "name": "tokenId",
          "type": "uint256"
        }
      ],
      "name": "Approval",
      "type": "event"
    },
    {
      "anonymous": false,
      "inputs": [
        {
          "indexed": true,
          "internalType": "address",
          "name": "owner",
          "type": "address"
        },
        {
          "indexed": true,
          "internalType": "address",
          "name": "operator",
          "type": "address"
        },
        {
          "indexed": false,
          "internalType": "bool",
          "name": "approved",
          "type": "bool"
        }
      ],
      "name": "ApprovalForAll",
      "type": "event"
    },
    {
      "anonymous": false,
      "inputs": [
        {
          "indexed": true,
          "internalType": "address",
          "name": "previousOwner",
          "type": "address"
        },
        {
          "indexed": true,
          "internalType": "address",
          "name": "newOwner",
          "type": "address"
        }
      ],
      "name": "OwnershipTransferred",
      "type": "event"
    },
    {
      "anonymous": false,
      "inputs": [
        {
          "indexed": true,
          "internalType": "address",
          "name": "from",
          "type": "address"
        },
        {
          "indexed": true,
          "internalType": "address",
          "name": "to",
          "type": "address"
        },
        {
          "indexed": true,
          "internalType": "uint256",
          "name": "tokenId",
          "type": "uint256"
        }
      ],
      "name": "Transfer",
      "type": "event"
    },
    {
      "inputs": [],
      "name": "FC_PROVENANCE",
      "outputs": [
        {
          "internalType": "string",
          "name": "",
          "type": "string"
        }
      ],
      "stateMutability": "view",
      "type": "function",
      "constant": true
    },
    {
      "inputs": [],
      "name": "MAX_SUPPLY",
      "outputs": [
        {
          "internalType": "uint256",
          "name": "",
          "type": "uint256"
        }
      ],
      "stateMutability": "view",
      "type": "function",
      "constant": true
    },
    {
      "inputs": [],
      "name": "allowListisActive",
      "outputs": [
        {
          "internalType": "bool",
          "name": "",
          "type": "bool"
        }
      ],
      "stateMutability": "view",
      "type": "function",
      "constant": true
    },
    {
      "inputs": [
        {
          "internalType": "address",
          "name": "to",
          "type": "address"
        },
        {
          "internalType": "uint256",
          "name": "tokenId",
          "type": "uint256"
        }
      ],
      "name": "approve",
      "outputs": [],
      "stateMutability": "nonpayable",
      "type": "function"
    },
    {
      "inputs": [
        {
          "internalType": "address",
          "name": "owner",
          "type": "address"
        }
      ],
      "name": "balanceOf",
      "outputs": [
        {
          "internalType": "uint256",
          "name": "",
          "type": "uint256"
        }
      ],
      "stateMutability": "view",
      "type": "function",
      "constant": true
    },
    {
      "inputs": [
        {
          "internalType": "uint256",
          "name": "",
          "type": "uint256"
        }
      ],
      "name": "burnedTokenIds",
      "outputs": [
        {
          "internalType": "uint256",
          "name": "",
          "type": "uint256"
        }
      ],
      "stateMutability": "view",
      "type": "function",
      "constant": true
    },
    {
      "inputs": [
        {
          "internalType": "uint256",
          "name": "tokenId",
          "type": "uint256"
        }
      ],
      "name": "getApproved",
      "outputs": [
        {
          "internalType": "address",
          "name": "",
          "type": "address"
        }
      ],
      "stateMutability": "view",
      "type": "function",
      "constant": true
    },
    {
      "inputs": [
        {
          "internalType": "address",
          "name": "owner",
          "type": "address"
        },
        {
          "internalType": "address",
          "name": "operator",
          "type": "address"
        }
      ],
      "name": "isApprovedForAll",
      "outputs": [
        {
          "internalType": "bool",
          "name": "",
          "type": "bool"
        }
      ],
      "stateMutability": "view",
      "type": "function",
      "constant": true
    },
    {
      "inputs": [],
      "name": "maxPublicFoxyMint",
      "outputs": [
        {
          "internalType": "uint256",
          "name": "",
          "type": "uint256"
        }
      ],
      "stateMutability": "view",
      "type": "function",
      "constant": true
    },
    {
      "inputs": [],
      "name": "name",
      "outputs": [
        {
          "internalType": "string",
          "name": "",
          "type": "string"
        }
      ],
      "stateMutability": "view",
      "type": "function",
      "constant": true
    },
    {
      "inputs": [],
      "name": "owner",
      "outputs": [
        {
          "internalType": "address",
          "name": "",
          "type": "address"
        }
      ],
      "stateMutability": "view",
      "type": "function",
      "constant": true
    },
    {
      "inputs": [
        {
          "internalType": "uint256",
          "name": "tokenId",
          "type": "uint256"
        }
      ],
      "name": "ownerOf",
      "outputs": [
        {
          "internalType": "address",
          "name": "",
          "type": "address"
        }
      ],
      "stateMutability": "view",
      "type": "function",
      "constant": true
    },
    {
      "inputs": [],
      "name": "privateFoxyPrice",
      "outputs": [
        {
          "internalType": "uint256",
          "name": "",
          "type": "uint256"
        }
      ],
      "stateMutability": "view",
      "type": "function",
      "constant": true
    },
    {
      "inputs": [],
      "name": "privateSaleIsActive",
      "outputs": [
        {
          "internalType": "bool",
          "name": "",
          "type": "bool"
        }
      ],
      "stateMutability": "view",
      "type": "function",
      "constant": true
    },
    {
      "inputs": [],
      "name": "publicFoxyPrice",
      "outputs": [
        {
          "internalType": "uint256",
          "name": "",
          "type": "uint256"
        }
      ],
      "stateMutability": "view",
      "type": "function",
      "constant": true
    },
    {
      "inputs": [],
      "name": "publicSaleIsActive",
      "outputs": [
        {
          "internalType": "bool",
          "name": "",
          "type": "bool"
        }
      ],
      "stateMutability": "view",
      "type": "function",
      "constant": true
    },
    {
      "inputs": [],
      "name": "renounceOwnership",
      "outputs": [],
      "stateMutability": "nonpayable",
      "type": "function"
    },
    {
      "inputs": [
        {
          "internalType": "address",
          "name": "from",
          "type": "address"
        },
        {
          "internalType": "address",
          "name": "to",
          "type": "address"
        },
        {
          "internalType": "uint256",
          "name": "tokenId",
          "type": "uint256"
        }
      ],
      "name": "safeTransferFrom",
      "outputs": [],
      "stateMutability": "nonpayable",
      "type": "function"
    },
    {
      "inputs": [
        {
          "internalType": "address",
          "name": "from",
          "type": "address"
        },
        {
          "internalType": "address",
          "name": "to",
          "type": "address"
        },
        {
          "internalType": "uint256",
          "name": "tokenId",
          "type": "uint256"
        },
        {
          "internalType": "bytes",
          "name": "data",
          "type": "bytes"
        }
      ],
      "name": "safeTransferFrom",
      "outputs": [],
      "stateMutability": "nonpayable",
      "type": "function"
    },
    {
      "inputs": [
        {
          "internalType": "address",
          "name": "operator",
          "type": "address"
        },
        {
          "internalType": "bool",
          "name": "approved",
          "type": "bool"
        }
      ],
      "name": "setApprovalForAll",
      "outputs": [],
      "stateMutability": "nonpayable",
      "type": "function"
    },
    {
      "inputs": [],
      "name": "symbol",
      "outputs": [
        {
          "internalType": "string",
          "name": "",
          "type": "string"
        }
      ],
      "stateMutability": "view",
      "type": "function",
      "constant": true
    },
    {
      "inputs": [
        {
          "internalType": "uint256",
          "name": "index",
          "type": "uint256"
        }
      ],
      "name": "tokenByIndex",
      "outputs": [
        {
          "internalType": "uint256",
          "name": "",
          "type": "uint256"
        }
      ],
      "stateMutability": "view",
      "type": "function",
      "constant": true
    },
    {
      "inputs": [
        {
          "internalType": "address",
          "name": "owner",
          "type": "address"
        },
        {
          "internalType": "uint256",
          "name": "index",
          "type": "uint256"
        }
      ],
      "name": "tokenOfOwnerByIndex",
      "outputs": [
        {
          "internalType": "uint256",
          "name": "",
          "type": "uint256"
        }
      ],
      "stateMutability": "view",
      "type": "function",
      "constant": true
    },
    {
      "inputs": [
        {
          "internalType": "uint256",
          "name": "tokenId",
          "type": "uint256"
        }
      ],
      "name": "tokenURI",
      "outputs": [
        {
          "internalType": "string",
          "name": "",
          "type": "string"
        }
      ],
      "stateMutability": "view",
      "type": "function",
      "constant": true
    },
    {
      "inputs": [],
      "name": "totalSupply",
      "outputs": [
        {
          "internalType": "uint256",
          "name": "",
          "type": "uint256"
        }
      ],
      "stateMutability": "view",
      "type": "function",
      "constant": true
    },
    {
      "inputs": [
        {
          "internalType": "address",
          "name": "from",
          "type": "address"
        },
        {
          "internalType": "address",
          "name": "to",
          "type": "address"
        },
        {
          "internalType": "uint256",
          "name": "tokenId",
          "type": "uint256"
        }
      ],
      "name": "transferFrom",
      "outputs": [],
      "stateMutability": "nonpayable",
      "type": "function"
    },
    {
      "inputs": [
        {
          "internalType": "address",
          "name": "newOwner",
          "type": "address"
        }
      ],
      "name": "transferOwnership",
      "outputs": [],
      "stateMutability": "nonpayable",
      "type": "function"
    },
    {
      "inputs": [
        {
          "internalType": "string",
          "name": "provenance",
          "type": "string"
        }
      ],
      "name": "setProvenance",
      "outputs": [],
      "stateMutability": "nonpayable",
      "type": "function"
    },
    {
      "inputs": [],
      "name": "flipPublicSaleState",
      "outputs": [],
      "stateMutability": "nonpayable",
      "type": "function"
    },
    {
      "inputs": [],
      "name": "flipPrivateSaleState",
      "outputs": [],
      "stateMutability": "nonpayable",
      "type": "function"
    },
    {
      "inputs": [
        {
          "internalType": "string",
          "name": "uri",
          "type": "string"
        }
      ],
      "name": "setBaseURI",
      "outputs": [],
      "stateMutability": "nonpayable",
      "type": "function"
    },
    {
      "inputs": [],
      "name": "flipAllowListState",
      "outputs": [],
      "stateMutability": "nonpayable",
      "type": "function"
    },
    {
      "inputs": [
        {
          "internalType": "address[]",
          "name": "addresses",
          "type": "address[]"
        },
        {
          "internalType": "uint8",
          "name": "numAllowedToMint",
          "type": "uint8"
        }
      ],
      "name": "setAllowList",
      "outputs": [],
      "stateMutability": "nonpayable",
      "type": "function"
    },
    {
      "inputs": [
        {
          "internalType": "address",
          "name": "addr",
          "type": "address"
        }
      ],
      "name": "numAvailableToMint",
      "outputs": [
        {
          "internalType": "uint8",
          "name": "",
          "type": "uint8"
        }
      ],
      "stateMutability": "view",
      "type": "function",
      "constant": true
    },
    {
      "inputs": [
        {
          "internalType": "uint8",
          "name": "numberOfTokens",
          "type": "uint8"
        }
      ],
      "name": "mintAllowList",
      "outputs": [],
      "stateMutability": "payable",
      "type": "function",
      "payable": true
    },
    {
      "inputs": [
        {
          "internalType": "uint256",
          "name": "numberOfTokens",
          "type": "uint256"
        }
      ],
      "name": "mint",
      "outputs": [],
      "stateMutability": "payable",
      "type": "function",
      "payable": true
    },
    {
      "inputs": [
        {
          "internalType": "uint256",
          "name": "tokenId1",
          "type": "uint256"
        },
        {
          "internalType": "uint256",
          "name": "tokenId2",
          "type": "uint256"
        }
      ],
      "name": "merge",
      "outputs": [],
      "stateMutability": "nonpayable",
      "type": "function"
    },
    {
      "inputs": [
        {
          "internalType": "bytes4",
          "name": "interfaceId",
          "type": "bytes4"
        }
      ],
      "name": "supportsInterface",
      "outputs": [
        {
          "internalType": "bool",
          "name": "",
          "type": "bool"
        }
      ],
      "stateMutability": "view",
      "type": "function",
      "constant": true
    },
    {
      "inputs": [
        {
          "internalType": "uint256",
          "name": "n",
          "type": "uint256"
        }
      ],
      "name": "reserveFoxy",
      "outputs": [],
      "stateMutability": "nonpayable",
      "type": "function"
    },
    {
      "inputs": [],
      "name": "withdraw",
      "outputs": [],
      "stateMutability": "nonpayable",
      "type": "function"
    }
  ],
  "bytecode": "0x60806040525f600c5f6101000a81548160ff0219169083151502179055505f600c60016101000a81548160ff0219169083151502179055505f600e5f6101000a81548160ff02191690831515021790555034801561005b575f5ffd5b50336040518060400160405280600881526020017f466f7879436c616e0000000000000000000000000000000000000000000000008152506040518060400160405280600481526020017f464f585900000000000000000000000000000000000000000000000000000000815250815f90816100d7919061046f565b5080600190816100e7919061046f565b5050505f73ffffffffffffffffffffffffffffffffffffffff168173ffffffffffffffffffffffffffffffffffffffff160361015a575f6040517f1e4fbdf7000000000000000000000000000000000000000000000000000000008152600401610151919061057d565b60405180910390fd5b6101698161016f60201b60201c565b50610596565b5f600a5f9054906101000a900473ffffffffffffffffffffffffffffffffffffffff16905081600a5f6101000a81548173ffffffffffffffffffffffffffffffffffffffff021916908373ffffffffffffffffffffffffffffffffffffffff1602179055508173ffffffffffffffffffffffffffffffffffffffff168173ffffffffffffffffffffffffffffffffffffffff167f8be0079c531659141344cd1fd0a4f28419497f9722a3daafe3b4186f6b6457e060405160405180910390a35050565b5f81519050919050565b7f4e487b71000000000000000000000000000000000000000000000000000000005f52604160045260245ffd5b7f4e487b71000000000000000000000000000000000000000000000000000000005f52602260045260245ffd5b5f60028204905060018216806102ad57607f821691505b6020821081036102c0576102bf610269565b5b50919050565b5f819050815f5260205f209050919050565b5f6020601f8301049050919050565b5f82821b905092915050565b5f600883026103227fffffffffffffffffffffffffffffffffffffffffffffffffffffffffffffffff826102e7565b61032c86836102e7565b95508019841693508086168417925050509392505050565b5f819050919050565b5f819050919050565b5f61037061036b61036684610344565b61034d565b610344565b9050919050565b5f819050919050565b61038983610356565b61039d61039582610377565b8484546102f3565b825550505050565b5f5f905090565b6103b46103a5565b6103bf818484610380565b505050565b5b818110156103e2576103d75f826103ac565b6001810190506103c5565b5050565b601f821115610427576103f8816102c6565b610401846102d8565b81016020851015610410578190505b61042461041c856102d8565b8301826103c4565b50505b505050565b5f82821c905092915050565b5f6104475f198460080261042c565b1980831691505092915050565b5f61045f8383610438565b9150826002028217905092915050565b61047882610232565b67ffffffffffffffff8111156104915761049061023c565b5b61049b8254610296565b6104a68282856103e6565b5f60209050601f8311600181146104d7575f84156104c5578287015190505b6104cf8582610454565b865550610536565b601f1984166104e5866102c6565b5f5b8281101561050c578489015182556001820191506020850194506020810190506104e7565b868310156105295784890151610525601f891682610438565b8355505b6001600288020188555050505b505050505050565b5f73ffffffffffffffffffffffffffffffffffffffff82169050919050565b5f6105678261053e565b9050919050565b6105778161055d565b82525050565b5f6020820190506105905f83018461056e565b92915050565b614099806105a35f395ff3fe60806040526004361061023a575f3560e01c8063715018a61161012d578063c04a2836116100aa578063ea4643b71161006e578063ea4643b714610834578063ef2f0ddd1461085e578063f2fde38b14610886578063feb309ad146108ae578063ffe630b5146108c45761023a565b8063c04a28361461073c578063c87b56dd14610778578063d1c2babb146107b4578063ddff5b1c146107dc578063e985e9c5146107f85761023a565b806395d89b41116100f157806395d89b4114610690578063a0712d68146106ba578063a10866ef146106d6578063a22cb465146106ec578063b88d4fde146107145761023a565b8063715018a6146105d457806371cbbf5e146105ea5780637aac87a9146106145780638295784d1461063e5780638da5cb5b146106665761023a565b806332cb6b0c116101bb5780634f0c54001161017f5780634f0c5400146104ce5780634f6ccce7146104f857806355f804b3146105345780636352211e1461055c57806370a08231146105985761023a565b806332cb6b0c146104265780633719e3b0146104505780633ad05024146104665780633ccfd60b1461049057806342842e0e146104a65761023a565b80630fcf2e75116102025780630fcf2e751461033257806318160ddd1461035c57806323b872dd1461038657806324b259c8146103ae5780632f745c59146103ea5761023a565b806301ffc9a71461023e57806304737a011461027a57806306fdde03146102a4578063081812fc146102ce578063095ea7b31461030a575b5f5ffd5b348015610249575f5ffd5b50610264600480360381019061025f9190612f4d565b6108ec565b6040516102719190612f92565b60405180910390f35b348015610285575f5ffd5b5061028e6108fd565b60405161029b9190612f92565b60405180910390f35b3480156102af575f5ffd5b506102b8610910565b6040516102c5919061301b565b60405180910390f35b3480156102d9575f5ffd5b506102f460048036038101906102ef919061306e565b61099f565b60405161030191906130d8565b60405180910390f35b348015610315575f5ffd5b50610330600480360381019061032b919061311b565b6109ba565b005b34801561033d575f5ffd5b506103466109d0565b6040516103539190612f92565b60405180910390f35b348015610367575f5ffd5b506103706109e2565b60405161037d9190613168565b60405180910390f35b348015610391575f5ffd5b506103ac60048036038101906103a79190613181565b6109ee565b005b3480156103b9575f5ffd5b506103d460048036038101906103cf919061306e565b610aed565b6040516103e19190613168565b60405180910390f35b3480156103f5575f5ffd5b50610410600480360381019061040b919061311b565b610b0d565b60405161041d9190613168565b60405180910390f35b348015610431575f5ffd5b5061043a610bb1565b6040516104479190613168565b60405180910390f35b34801561045b575f5ffd5b50610464610bb7565b005b348015610471575f5ffd5b5061047a610beb565b6040516104879190613168565b60405180910390f35b34801561049b575f5ffd5b506104a4610bf0565b005b3480156104b1575f5ffd5b506104cc60048036038101906104c79190613181565b610c43565b005b3480156104d9575f5ffd5b506104e2610c62565b6040516104ef9190613168565b60405180910390f35b348015610503575f5ffd5b5061051e6004803603810190610519919061306e565b610c6d565b60405161052b9190613168565b60405180910390f35b34801561053f575f5ffd5b5061055a600480360381019061055591906132fd565b610cdf565b005b348015610567575f5ffd5b50610582600480360381019061057d919061306e565b610cfa565b60405161058f91906130d8565b60405180910390f35b3480156105a3575f5ffd5b506105be60048036038101906105b99190613344565b610d0b565b6040516105cb9190613168565b60405180910390f35b3480156105df575f5ffd5b506105e8610dc1565b005b3480156105f5575f5ffd5b506105fe610dd4565b60405161060b9190612f92565b60405180910390f35b34801561061f575f5ffd5b50610628610de6565b604051610635919061301b565b60405180910390f35b348015610649575f5ffd5b50610664600480360381019061065f9190613402565b610e72565b005b348015610671575f5ffd5b5061067a610f19565b60405161068791906130d8565b60405180910390f35b34801561069b575f5ffd5b506106a4610f41565b6040516106b1919061301b565b60405180910390f35b6106d460048036038101906106cf919061306e565b610fd1565b005b3480156106e1575f5ffd5b506106ea611277565b005b3480156106f7575f5ffd5b50610712600480360381019061070d9190613489565b6112a9565b005b34801561071f575f5ffd5b5061073a60048036038101906107359190613565565b6112bf565b005b348015610747575f5ffd5b50610762600480360381019061075d9190613344565b6112dc565b60405161076f91906135f4565b60405180910390f35b348015610783575f5ffd5b5061079e6004803603810190610799919061306e565b61132e565b6040516107ab919061301b565b60405180910390f35b3480156107bf575f5ffd5b506107da60048036038101906107d5919061360d565b611394565b005b6107f660048036038101906107f1919061364b565b6114c6565b005b348015610803575f5ffd5b5061081e60048036038101906108199190613676565b611857565b60405161082b9190612f92565b60405180910390f35b34801561083f575f5ffd5b506108486118e5565b6040516108559190613168565b60405180910390f35b348015610869575f5ffd5b50610884600480360381019061087f919061306e565b6118f0565b005b348015610891575f5ffd5b506108ac60048036038101906108a79190613344565b611937565b005b3480156108b9575f5ffd5b506108c26119bb565b005b3480156108cf575f5ffd5b506108ea60048036038101906108e591906132fd565b6119ed565b005b5f6108f682611a08565b9050919050565b600c60019054906101000a900460ff1681565b60605f805461091e906136e1565b80601f016020809104026020016040519081016040528092919081815260200182805461094a906136e1565b80156109955780601f1061096c57610100808354040283529160200191610995565b820191905f5260205f20905b81548152906001019060200180831161097857829003601f168201915b5050505050905090565b5f6109a982611a81565b506109b382611b07565b9050919050565b6109cc82826109c7611b40565b611b47565b5050565b600c5f9054906101000a900460ff1681565b5f600880549050905090565b5f73ffffffffffffffffffffffffffffffffffffffff168273ffffffffffffffffffffffffffffffffffffffff1603610a5e575f6040517f64a0ae92000000000000000000000000000000000000000000000000000000008152600401610a5591906130d8565b60405180910390fd5b5f610a718383610a6c611b40565b611b59565b90508373ffffffffffffffffffffffffffffffffffffffff168173ffffffffffffffffffffffffffffffffffffffff1614610ae7578382826040517f64283d7b000000000000000000000000000000000000000000000000000000008152600401610ade93929190613711565b60405180910390fd5b50505050565b60108181548110610afc575f80fd5b905f5260205f20015f915090505481565b5f610b1783610d0b565b8210610b5c5782826040517fa57d13dc000000000000000000000000000000000000000000000000000000008152600401610b53929190613746565b60405180910390fd5b60065f8473ffffffffffffffffffffffffffffffffffffffff1673ffffffffffffffffffffffffffffffffffffffff1681526020019081526020015f205f8381526020019081526020015f2054905092915050565b614e2081565b610bbf611b6e565b600c60019054906101000a900460ff1615600c60016101000a81548160ff021916908315150217905550565b601481565b610bf8611b6e565b5f4790503373ffffffffffffffffffffffffffffffffffffffff166108fc8290811502906040515f60405180830381858888f19350505050158015610c3f573d5f5f3e3d5ffd5b5050565b610c5d83838360405180602001604052805f8152506112bf565b505050565b662c68af0bb1400081565b5f610c766109e2565b8210610cbb575f826040517fa57d13dc000000000000000000000000000000000000000000000000000000008152600401610cb2929190613746565b60405180910390fd5b60088281548110610ccf57610cce61376d565b5b905f5260205f2001549050919050565b610ce7611b6e565b80600d9081610cf6919061393a565b5050565b5f610d0482611a81565b9050919050565b5f5f73ffffffffffffffffffffffffffffffffffffffff168273ffffffffffffffffffffffffffffffffffffffff1603610d7c575f6040517f89c62b64000000000000000000000000000000000000000000000000000000008152600401610d7391906130d8565b60405180910390fd5b60035f8373ffffffffffffffffffffffffffffffffffffffff1673ffffffffffffffffffffffffffffffffffffffff1681526020019081526020015f20549050919050565b610dc9611b6e565b610dd25f611bf5565b565b600e5f9054906101000a900460ff1681565b600b8054610df3906136e1565b80601f0160208091040260200160405190810160405280929190818152602001828054610e1f906136e1565b8015610e6a5780601f10610e4157610100808354040283529160200191610e6a565b820191905f5260205f20905b815481529060010190602001808311610e4d57829003601f168201915b505050505081565b610e7a611b6e565b5f5f90505b83839050811015610f135781600f5f868685818110610ea157610ea061376d565b5b9050602002016020810190610eb69190613344565b73ffffffffffffffffffffffffffffffffffffffff1673ffffffffffffffffffffffffffffffffffffffff1681526020019081526020015f205f6101000a81548160ff021916908360ff1602179055508080600101915050610e7f565b50505050565b5f600a5f9054906101000a900473ffffffffffffffffffffffffffffffffffffffff16905090565b606060018054610f50906136e1565b80601f0160208091040260200160405190810160405280929190818152602001828054610f7c906136e1565b8015610fc75780601f10610f9e57610100808354040283529160200191610fc7565b820191905f5260205f20905b815481529060010190602001808311610faa57829003601f168201915b5050505050905090565b5f610fda6109e2565b90505f82662c68af0bb14000610ff09190613a36565b9050600c5f9054906101000a900460ff16611040576040517f08c379a000000000000000000000000000000000000000000000000000000000815260040161103790613ac1565b60405180910390fd5b6014831115611084576040517f08c379a000000000000000000000000000000000000000000000000000000000815260040161107b90613b4f565b60405180910390fd5b614e2083836110939190613b6d565b11156110d4576040517f08c379a00000000000000000000000000000000000000000000000000000000081526004016110cb90613bea565b60405180910390fd5b34811115611117576040517f08c379a000000000000000000000000000000000000000000000000000000000815260040161110e90613c52565b60405180910390fd5b5f5f90505b838110156111af575f5f601080549050111561118c57601060016010805490506111469190613c70565b815481106111575761115661376d565b5b905f5260205f2001549050601080548061117457611173613ca3565b5b600190038181905f5260205f20015f90559055611197565b6111946109e2565b90505b6111a13382611cb8565b50808060010191505061111c565b5080341115611272575f81346111c59190613c70565b90505f3373ffffffffffffffffffffffffffffffffffffffff16826040516111ec90613cfd565b5f6040518083038185875af1925050503d805f8114611226576040519150601f19603f3d011682016040523d82523d5f602084013e61122b565b606091505b505090508061126f576040517f08c379a000000000000000000000000000000000000000000000000000000000815260040161126690613d5b565b60405180910390fd5b50505b505050565b61127f611b6e565b600c5f9054906101000a900460ff1615600c5f6101000a81548160ff021916908315150217905550565b6112bb6112b4611b40565b8383611cd5565b5050565b6112ca8484846109ee565b6112d684848484611e3e565b50505050565b5f600f5f8373ffffffffffffffffffffffffffffffffffffffff1673ffffffffffffffffffffffffffffffffffffffff1681526020019081526020015f205f9054906101000a900460ff169050919050565b606061133982611a81565b505f611343611ff0565b90505f8151116113615760405180602001604052805f81525061138c565b8061136b84612080565b60405160200161137c929190613db3565b6040516020818303038152906040525b915050919050565b3373ffffffffffffffffffffffffffffffffffffffff166113b483610cfa565b73ffffffffffffffffffffffffffffffffffffffff161461140a576040517f08c379a000000000000000000000000000000000000000000000000000000000815260040161140190613e20565b60405180910390fd5b3373ffffffffffffffffffffffffffffffffffffffff1661142a82610cfa565b73ffffffffffffffffffffffffffffffffffffffff1614611480576040517f08c379a000000000000000000000000000000000000000000000000000000000815260040161147790613e20565b60405180910390fd5b6114898261214a565b6114928161214a565b601081908060018154018082558091505060019003905f5260205f20015f90919091909150556114c23383611cb8565b5050565b5f6114cf6109e2565b90505f600c60019054906101000a900460ff1615611504578260ff16661aa535d3d0c0006114fd9190613a36565b905061151d565b8260ff16662c68af0bb1400061151a9190613a36565b90505b600e5f9054906101000a900460ff1661156b576040517f08c379a000000000000000000000000000000000000000000000000000000000815260040161156290613e88565b60405180910390fd5b600f5f3373ffffffffffffffffffffffffffffffffffffffff1673ffffffffffffffffffffffffffffffffffffffff1681526020019081526020015f205f9054906101000a900460ff1660ff168360ff1611156115fd576040517f08c379a00000000000000000000000000000000000000000000000000000000081526004016115f490613f16565b60405180910390fd5b614e208360ff168361160f9190613b6d565b1115611650576040517f08c379a000000000000000000000000000000000000000000000000000000000815260040161164790613bea565b60405180910390fd5b34811115611693576040517f08c379a000000000000000000000000000000000000000000000000000000000815260040161168a90613c52565b60405180910390fd5b5f5f90505b8360ff1681101561178f575f5f60108054905011156116fa5760105f815481106116c5576116c461376d565b5b905f5260205f200154905060108054806116e2576116e1613ca3565b5b600190038181905f5260205f20015f90559055611705565b6117026109e2565b90505b61170f3382611cb8565b600f5f3373ffffffffffffffffffffffffffffffffffffffff1673ffffffffffffffffffffffffffffffffffffffff1681526020019081526020015f205f81819054906101000a900460ff168092919061176890613f34565b91906101000a81548160ff021916908360ff16021790555050508080600101915050611698565b5080341115611852575f81346117a59190613c70565b90505f3373ffffffffffffffffffffffffffffffffffffffff16826040516117cc90613cfd565b5f6040518083038185875af1925050503d805f8114611806576040519150601f19603f3d011682016040523d82523d5f602084013e61180b565b606091505b505090508061184f576040517f08c379a000000000000000000000000000000000000000000000000000000000815260040161184690613d5b565b60405180910390fd5b50505b505050565b5f60055f8473ffffffffffffffffffffffffffffffffffffffff1673ffffffffffffffffffffffffffffffffffffffff1681526020019081526020015f205f8373ffffffffffffffffffffffffffffffffffffffff1673ffffffffffffffffffffffffffffffffffffffff1681526020019081526020015f205f9054906101000a900460ff16905092915050565b661aa535d3d0c00081565b6118f8611b6e565b5f6119016109e2565b90505f5f90505b82811015611932576119253382846119209190613b6d565b611cb8565b8080600101915050611908565b505050565b61193f611b6e565b5f73ffffffffffffffffffffffffffffffffffffffff168173ffffffffffffffffffffffffffffffffffffffff16036119af575f6040517f1e4fbdf70000000000000000000000000000000000000000000000000000000081526004016119a691906130d8565b60405180910390fd5b6119b881611bf5565b50565b6119c3611b6e565b600e5f9054906101000a900460ff1615600e5f6101000a81548160ff021916908315150217905550565b6119f5611b6e565b80600b9081611a04919061393a565b5050565b5f7f780e9d63000000000000000000000000000000000000000000000000000000007bffffffffffffffffffffffffffffffffffffffffffffffffffffffff1916827bffffffffffffffffffffffffffffffffffffffffffffffffffffffff19161480611a7a5750611a79826121cc565b5b9050919050565b5f5f611a8c836122ad565b90505f73ffffffffffffffffffffffffffffffffffffffff168173ffffffffffffffffffffffffffffffffffffffff1603611afe57826040517f7e273289000000000000000000000000000000000000000000000000000000008152600401611af59190613168565b60405180910390fd5b80915050919050565b5f60045f8381526020019081526020015f205f9054906101000a900473ffffffffffffffffffffffffffffffffffffffff169050919050565b5f33905090565b611b5483838360016122e6565b505050565b5f611b658484846124a5565b90509392505050565b611b76611b40565b73ffffffffffffffffffffffffffffffffffffffff16611b94610f19565b73ffffffffffffffffffffffffffffffffffffffff1614611bf357611bb7611b40565b6040517f118cdaa7000000000000000000000000000000000000000000000000000000008152600401611bea91906130d8565b60405180910390fd5b565b5f600a5f9054906101000a900473ffffffffffffffffffffffffffffffffffffffff16905081600a5f6101000a81548173ffffffffffffffffffffffffffffffffffffffff021916908373ffffffffffffffffffffffffffffffffffffffff1602179055508173ffffffffffffffffffffffffffffffffffffffff168173ffffffffffffffffffffffffffffffffffffffff167f8be0079c531659141344cd1fd0a4f28419497f9722a3daafe3b4186f6b6457e060405160405180910390a35050565b611cd1828260405180602001604052805f8152506125bf565b5050565b5f73ffffffffffffffffffffffffffffffffffffffff168273ffffffffffffffffffffffffffffffffffffffff1603611d4557816040517f5b08ba18000000000000000000000000000000000000000000000000000000008152600401611d3c91906130d8565b60405180910390fd5b8060055f8573ffffffffffffffffffffffffffffffffffffffff1673ffffffffffffffffffffffffffffffffffffffff1681526020019081526020015f205f8473ffffffffffffffffffffffffffffffffffffffff1673ffffffffffffffffffffffffffffffffffffffff1681526020019081526020015f205f6101000a81548160ff0219169083151502179055508173ffffffffffffffffffffffffffffffffffffffff168373ffffffffffffffffffffffffffffffffffffffff167f17307eab39ab6107e8899845ad3d59bd9653f200f220920489ca2b5937696c3183604051611e319190612f92565b60405180910390a3505050565b5f8373ffffffffffffffffffffffffffffffffffffffff163b1115611fea578273ffffffffffffffffffffffffffffffffffffffff1663150b7a02611e81611b40565b8685856040518563ffffffff1660e01b8152600401611ea39493929190613fad565b6020604051808303815f875af1925050508015611ede57506040513d601f19601f82011682018060405250810190611edb919061400b565b60015b611f5f573d805f8114611f0c576040519150601f19603f3d011682016040523d82523d5f602084013e611f11565b606091505b505f815103611f5757836040517f64a0ae92000000000000000000000000000000000000000000000000000000008152600401611f4e91906130d8565b60405180910390fd5b805181602001fd5b63150b7a0260e01b7bffffffffffffffffffffffffffffffffffffffffffffffffffffffff1916817bffffffffffffffffffffffffffffffffffffffffffffffffffffffff191614611fe857836040517f64a0ae92000000000000000000000000000000000000000000000000000000008152600401611fdf91906130d8565b60405180910390fd5b505b50505050565b6060600d8054611fff906136e1565b80601f016020809104026020016040519081016040528092919081815260200182805461202b906136e1565b80156120765780601f1061204d57610100808354040283529160200191612076565b820191905f5260205f20905b81548152906001019060200180831161205957829003601f168201915b5050505050905090565b60605f600161208e846125da565b0190505f8167ffffffffffffffff8111156120ac576120ab6131d9565b5b6040519080825280601f01601f1916602001820160405280156120de5781602001600182028036833780820191505090505b5090505f82602001820190505b60011561213f578080600190039150507f3031323334353637383961626364656600000000000000000000000000000000600a86061a8153600a858161213457612133614036565b5b0494505f85036120eb575b819350505050919050565b5f6121565f835f611b59565b90505f73ffffffffffffffffffffffffffffffffffffffff168173ffffffffffffffffffffffffffffffffffffffff16036121c857816040517f7e2732890000000000000000000000000000000000000000000000000000000081526004016121bf9190613168565b60405180910390fd5b5050565b5f7f80ac58cd000000000000000000000000000000000000000000000000000000007bffffffffffffffffffffffffffffffffffffffffffffffffffffffff1916827bffffffffffffffffffffffffffffffffffffffffffffffffffffffff1916148061229657507f5b5e139f000000000000000000000000000000000000000000000000000000007bffffffffffffffffffffffffffffffffffffffffffffffffffffffff1916827bffffffffffffffffffffffffffffffffffffffffffffffffffffffff1916145b806122a657506122a58261272b565b5b9050919050565b5f60025f8381526020019081526020015f205f9054906101000a900473ffffffffffffffffffffffffffffffffffffffff169050919050565b808061231e57505f73ffffffffffffffffffffffffffffffffffffffff168273ffffffffffffffffffffffffffffffffffffffff1614155b15612450575f61232d84611a81565b90505f73ffffffffffffffffffffffffffffffffffffffff168373ffffffffffffffffffffffffffffffffffffffff161415801561239757508273ffffffffffffffffffffffffffffffffffffffff168173ffffffffffffffffffffffffffffffffffffffff1614155b80156123aa57506123a88184611857565b155b156123ec57826040517fa9fbf51f0000000000000000000000000000000000000000000000000000000081526004016123e391906130d8565b60405180910390fd5b811561244e57838573ffffffffffffffffffffffffffffffffffffffff168273ffffffffffffffffffffffffffffffffffffffff167f8c5be1e5ebec7d5bd14f71427d1e84f3dd0314c0f7b2291e5b200ac8c7c3b92560405160405180910390a45b505b8360045f8581526020019081526020015f205f6101000a81548173ffffffffffffffffffffffffffffffffffffffff021916908373ffffffffffffffffffffffffffffffffffffffff16021790555050505050565b5f5f6124b2858585612794565b90505f73ffffffffffffffffffffffffffffffffffffffff168173ffffffffffffffffffffffffffffffffffffffff16036124f5576124f08461299f565b612534565b8473ffffffffffffffffffffffffffffffffffffffff168173ffffffffffffffffffffffffffffffffffffffff16146125335761253281856129e3565b5b5b5f73ffffffffffffffffffffffffffffffffffffffff168573ffffffffffffffffffffffffffffffffffffffff16036125755761257084612b2d565b6125b4565b8473ffffffffffffffffffffffffffffffffffffffff168173ffffffffffffffffffffffffffffffffffffffff16146125b3576125b28585612bed565b5b5b809150509392505050565b6125c98383612c71565b6125d55f848484611e3e565b505050565b5f5f5f90507a184f03e93ff9f4daa797ed6e38ed64bf6a1f0100000000000000008310612636577a184f03e93ff9f4daa797ed6e38ed64bf6a1f010000000000000000838161262c5761262b614036565b5b0492506040810190505b6d04ee2d6d415b85acef81000000008310612673576d04ee2d6d415b85acef8100000000838161266957612668614036565b5b0492506020810190505b662386f26fc1000083106126a257662386f26fc10000838161269857612697614036565b5b0492506010810190505b6305f5e10083106126cb576305f5e10083816126c1576126c0614036565b5b0492506008810190505b61271083106126f05761271083816126e6576126e5614036565b5b0492506004810190505b60648310612713576064838161270957612708614036565b5b0492506002810190505b600a8310612722576001810190505b80915050919050565b5f7f01ffc9a7000000000000000000000000000000000000000000000000000000007bffffffffffffffffffffffffffffffffffffffffffffffffffffffff1916827bffffffffffffffffffffffffffffffffffffffffffffffffffffffff1916149050919050565b5f5f61279f846122ad565b90505f73ffffffffffffffffffffffffffffffffffffffff168373ffffffffffffffffffffffffffffffffffffffff16146127e0576127df818486612d64565b5b5f73ffffffffffffffffffffffffffffffffffffffff168173ffffffffffffffffffffffffffffffffffffffff161461286b5761281f5f855f5f6122e6565b600160035f8373ffffffffffffffffffffffffffffffffffffffff1673ffffffffffffffffffffffffffffffffffffffff1681526020019081526020015f205f82825403925050819055505b5f73ffffffffffffffffffffffffffffffffffffffff168573ffffffffffffffffffffffffffffffffffffffff16146128ea57600160035f8773ffffffffffffffffffffffffffffffffffffffff1673ffffffffffffffffffffffffffffffffffffffff1681526020019081526020015f205f82825401925050819055505b8460025f8681526020019081526020015f205f6101000a81548173ffffffffffffffffffffffffffffffffffffffff021916908373ffffffffffffffffffffffffffffffffffffffff160217905550838573ffffffffffffffffffffffffffffffffffffffff168273ffffffffffffffffffffffffffffffffffffffff167fddf252ad1be2c89b69c2b068fc378daa952ba7f163c4a11628f55a4df523b3ef60405160405180910390a4809150509392505050565b60088054905060095f8381526020019081526020015f2081905550600881908060018154018082558091505060019003905f5260205f20015f909190919091505550565b5f6129ed83610d0b565b90505f60075f8481526020019081526020015f20549050818114612ac4575f60065f8673ffffffffffffffffffffffffffffffffffffffff1673ffffffffffffffffffffffffffffffffffffffff1681526020019081526020015f205f8481526020019081526020015f205490508060065f8773ffffffffffffffffffffffffffffffffffffffff1673ffffffffffffffffffffffffffffffffffffffff1681526020019081526020015f205f8481526020019081526020015f20819055508160075f8381526020019081526020015f2081905550505b60075f8481526020019081526020015f205f905560065f8573ffffffffffffffffffffffffffffffffffffffff1673ffffffffffffffffffffffffffffffffffffffff1681526020019081526020015f205f8381526020019081526020015f205f905550505050565b5f6001600880549050612b409190613c70565b90505f60095f8481526020019081526020015f205490505f60088381548110612b6c57612b6b61376d565b5b905f5260205f20015490508060088381548110612b8c57612b8b61376d565b5b905f5260205f2001819055508160095f8381526020019081526020015f208190555060095f8581526020019081526020015f205f90556008805480612bd457612bd3613ca3565b5b600190038181905f5260205f20015f9055905550505050565b5f6001612bf984610d0b565b612c039190613c70565b90508160065f8573ffffffffffffffffffffffffffffffffffffffff1673ffffffffffffffffffffffffffffffffffffffff1681526020019081526020015f205f8381526020019081526020015f20819055508060075f8481526020019081526020015f2081905550505050565b5f73ffffffffffffffffffffffffffffffffffffffff168273ffffffffffffffffffffffffffffffffffffffff1603612ce1575f6040517f64a0ae92000000000000000000000000000000000000000000000000000000008152600401612cd891906130d8565b60405180910390fd5b5f612ced83835f611b59565b90505f73ffffffffffffffffffffffffffffffffffffffff168173ffffffffffffffffffffffffffffffffffffffff1614612d5f575f6040517f73c6ac6e000000000000000000000000000000000000000000000000000000008152600401612d5691906130d8565b60405180910390fd5b505050565b612d6f838383612e27565b612e22575f73ffffffffffffffffffffffffffffffffffffffff168373ffffffffffffffffffffffffffffffffffffffff1603612de357806040517f7e273289000000000000000000000000000000000000000000000000000000008152600401612dda9190613168565b60405180910390fd5b81816040517f177e802f000000000000000000000000000000000000000000000000000000008152600401612e19929190613746565b60405180910390fd5b505050565b5f5f73ffffffffffffffffffffffffffffffffffffffff168373ffffffffffffffffffffffffffffffffffffffff1614158015612ede57508273ffffffffffffffffffffffffffffffffffffffff168473ffffffffffffffffffffffffffffffffffffffff161480612e9f5750612e9e8484611857565b5b80612edd57508273ffffffffffffffffffffffffffffffffffffffff16612ec583611b07565b73ffffffffffffffffffffffffffffffffffffffff16145b5b90509392505050565b5f604051905090565b5f5ffd5b5f5ffd5b5f7fffffffff0000000000000000000000000000000000000000000000000000000082169050919050565b612f2c81612ef8565b8114612f36575f5ffd5b50565b5f81359050612f4781612f23565b92915050565b5f60208284031215612f6257612f61612ef0565b5b5f612f6f84828501612f39565b91505092915050565b5f8115159050919050565b612f8c81612f78565b82525050565b5f602082019050612fa55f830184612f83565b92915050565b5f81519050919050565b5f82825260208201905092915050565b8281835e5f83830152505050565b5f601f19601f8301169050919050565b5f612fed82612fab565b612ff78185612fb5565b9350613007818560208601612fc5565b61301081612fd3565b840191505092915050565b5f6020820190508181035f8301526130338184612fe3565b905092915050565b5f819050919050565b61304d8161303b565b8114613057575f5ffd5b50565b5f8135905061306881613044565b92915050565b5f6020828403121561308357613082612ef0565b5b5f6130908482850161305a565b91505092915050565b5f73ffffffffffffffffffffffffffffffffffffffff82169050919050565b5f6130c282613099565b9050919050565b6130d2816130b8565b82525050565b5f6020820190506130eb5f8301846130c9565b92915050565b6130fa816130b8565b8114613104575f5ffd5b50565b5f81359050613115816130f1565b92915050565b5f5f6040838503121561313157613130612ef0565b5b5f61313e85828601613107565b925050602061314f8582860161305a565b9150509250929050565b6131628161303b565b82525050565b5f60208201905061317b5f830184613159565b92915050565b5f5f5f6060848603121561319857613197612ef0565b5b5f6131a586828701613107565b93505060206131b686828701613107565b92505060406131c78682870161305a565b9150509250925092565b5f5ffd5b5f5ffd5b7f4e487b71000000000000000000000000000000000000000000000000000000005f52604160045260245ffd5b61320f82612fd3565b810181811067ffffffffffffffff8211171561322e5761322d6131d9565b5b80604052505050565b5f613240612ee7565b905061324c8282613206565b919050565b5f67ffffffffffffffff82111561326b5761326a6131d9565b5b61327482612fd3565b9050602081019050919050565b828183375f83830152505050565b5f6132a161329c84613251565b613237565b9050828152602081018484840111156132bd576132bc6131d5565b5b6132c8848285613281565b509392505050565b5f82601f8301126132e4576132e36131d1565b5b81356132f484826020860161328f565b91505092915050565b5f6020828403121561331257613311612ef0565b5b5f82013567ffffffffffffffff81111561332f5761332e612ef4565b5b61333b848285016132d0565b91505092915050565b5f6020828403121561335957613358612ef0565b5b5f61336684828501613107565b91505092915050565b5f5ffd5b5f5ffd5b5f5f83601f84011261338c5761338b6131d1565b5b8235905067ffffffffffffffff8111156133a9576133a861336f565b5b6020830191508360208202830111156133c5576133c4613373565b5b9250929050565b5f60ff82169050919050565b6133e1816133cc565b81146133eb575f5ffd5b50565b5f813590506133fc816133d8565b92915050565b5f5f5f6040848603121561341957613418612ef0565b5b5f84013567ffffffffffffffff81111561343657613435612ef4565b5b61344286828701613377565b93509350506020613455868287016133ee565b9150509250925092565b61346881612f78565b8114613472575f5ffd5b50565b5f813590506134838161345f565b92915050565b5f5f6040838503121561349f5761349e612ef0565b5b5f6134ac85828601613107565b92505060206134bd85828601613475565b9150509250929050565b5f67ffffffffffffffff8211156134e1576134e06131d9565b5b6134ea82612fd3565b9050602081019050919050565b5f613509613504846134c7565b613237565b905082815260208101848484011115613525576135246131d5565b5b613530848285613281565b509392505050565b5f82601f83011261354c5761354b6131d1565b5b813561355c8482602086016134f7565b91505092915050565b5f5f5f5f6080858703121561357d5761357c612ef0565b5b5f61358a87828801613107565b945050602061359b87828801613107565b93505060406135ac8782880161305a565b925050606085013567ffffffffffffffff8111156135cd576135cc612ef4565b5b6135d987828801613538565b91505092959194509250565b6135ee816133cc565b82525050565b5f6020820190506136075f8301846135e5565b92915050565b5f5f6040838503121561362357613622612ef0565b5b5f6136308582860161305a565b92505060206136418582860161305a565b9150509250929050565b5f602082840312156136605761365f612ef0565b5b5f61366d848285016133ee565b91505092915050565b5f5f6040838503121561368c5761368b612ef0565b5b5f61369985828601613107565b92505060206136aa85828601613107565b9150509250929050565b7f4e487b71000000000000000000000000000000000000000000000000000000005f52602260045260245ffd5b5f60028204905060018216806136f857607f821691505b60208210810361370b5761370a6136b4565b5b50919050565b5f6060820190506137245f8301866130c9565b6137316020830185613159565b61373e60408301846130c9565b949350505050565b5f6040820190506137595f8301856130c9565b6137666020830184613159565b9392505050565b7f4e487b71000000000000000000000000000000000000000000000000000000005f52603260045260245ffd5b5f819050815f5260205f209050919050565b5f6020601f8301049050919050565b5f82821b905092915050565b5f600883026137f67fffffffffffffffffffffffffffffffffffffffffffffffffffffffffffffffff826137bb565b61380086836137bb565b95508019841693508086168417925050509392505050565b5f819050919050565b5f61383b6138366138318461303b565b613818565b61303b565b9050919050565b5f819050919050565b61385483613821565b61386861386082613842565b8484546137c7565b825550505050565b5f5f905090565b61387f613870565b61388a81848461384b565b505050565b5b818110156138ad576138a25f82613877565b600181019050613890565b5050565b601f8211156138f2576138c38161379a565b6138cc846137ac565b810160208510156138db578190505b6138ef6138e7856137ac565b83018261388f565b50505b505050565b5f82821c905092915050565b5f6139125f19846008026138f7565b1980831691505092915050565b5f61392a8383613903565b9150826002028217905092915050565b61394382612fab565b67ffffffffffffffff81111561395c5761395b6131d9565b5b61396682546136e1565b6139718282856138b1565b5f60209050601f8311600181146139a2575f8415613990578287015190505b61399a858261391f565b865550613a01565b601f1984166139b08661379a565b5f5b828110156139d7578489015182556001820191506020850194506020810190506139b2565b868310156139f457848901516139f0601f891682613903565b8355505b6001600288020188555050505b505050505050565b7f4e487b71000000000000000000000000000000000000000000000000000000005f52601160045260245ffd5b5f613a408261303b565b9150613a4b8361303b565b9250828202613a598161303b565b91508282048414831517613a7057613a6f613a09565b5b5092915050565b7f53616c65206d7573742062652061637469766520746f206d696e7420466f78795f82015250565b5f613aab602083612fb5565b9150613ab682613a77565b602082019050919050565b5f6020820190508181035f830152613ad881613a9f565b9050919050565b7f43616e206f6e6c79206d696e7420313020746f6b656e7320617420612074696d5f8201527f6500000000000000000000000000000000000000000000000000000000000000602082015250565b5f613b39602183612fb5565b9150613b4482613adf565b604082019050919050565b5f6020820190508181035f830152613b6681613b2d565b9050919050565b5f613b778261303b565b9150613b828361303b565b9250828201905080821115613b9a57613b99613a09565b5b92915050565b7f507572636861736520776f756c6420657863656564206d617820746f6b656e735f82015250565b5f613bd4602083612fb5565b9150613bdf82613ba0565b602082019050919050565b5f6020820190508181035f830152613c0181613bc8565b9050919050565b7f45746865722076616c75652073656e74206973206e6f7420636f7272656374005f82015250565b5f613c3c601f83612fb5565b9150613c4782613c08565b602082019050919050565b5f6020820190508181035f830152613c6981613c30565b9050919050565b5f613c7a8261303b565b9150613c858361303b565b9250828203905081811115613c9d57613c9c613a09565b5b92915050565b7f4e487b71000000000000000000000000000000000000000000000000000000005f52603160045260245ffd5b5f81905092915050565b50565b5f613ce85f83613cd0565b9150613cf382613cda565b5f82019050919050565b5f613d0782613cdd565b9150819050919050565b7f526566756e64206661696c6564000000000000000000000000000000000000005f82015250565b5f613d45600d83612fb5565b9150613d5082613d11565b602082019050919050565b5f6020820190508181035f830152613d7281613d39565b9050919050565b5f81905092915050565b5f613d8d82612fab565b613d978185613d79565b9350613da7818560208601612fc5565b80840191505092915050565b5f613dbe8285613d83565b9150613dca8284613d83565b91508190509392505050565b7f596f75206d757374206f776e2074686520746f6b656e000000000000000000005f82015250565b5f613e0a601683612fb5565b9150613e1582613dd6565b602082019050919050565b5f6020820190508181035f830152613e3781613dfe565b9050919050565b7f416c6c6f77206c697374206973206e6f742061637469766500000000000000005f82015250565b5f613e72601883612fb5565b9150613e7d82613e3e565b602082019050919050565b5f6020820190508181035f830152613e9f81613e66565b9050919050565b7f4578636565646564206d617820617661696c61626c6520746f207075726368615f8201527f7365000000000000000000000000000000000000000000000000000000000000602082015250565b5f613f00602283612fb5565b9150613f0b82613ea6565b604082019050919050565b5f6020820190508181035f830152613f2d81613ef4565b9050919050565b5f613f3e826133cc565b91505f8203613f5057613f4f613a09565b5b600182039050919050565b5f81519050919050565b5f82825260208201905092915050565b5f613f7f82613f5b565b613f898185613f65565b9350613f99818560208601612fc5565b613fa281612fd3565b840191505092915050565b5f608082019050613fc05f8301876130c9565b613fcd60208301866130c9565b613fda6040830185613159565b8181036060830152613fec8184613f75565b905095945050505050565b5f8151905061400581612f23565b92915050565b5f602082840312156140205761401f612ef0565b5b5f61402d84828501613ff7565b91505092915050565b7f4e487b71000000000000000000000000000000000000000000000000000000005f52601260045260245ffdfea264697066735822122030ff8a4630315171758e3efc5b83c598701ba93047c60efb131733b9f1245a7464736f6c634300081c0033",
  "immutableReferences": {},
  "source": "// SPDX-License-Identifier: GPL-3.0\npragma solidity ^0.8.21;\n\nimport \"@openzeppelin/contracts/token/ERC721/ERC721.sol\";\nimport \"@openzeppelin/contracts/access/Ownable.sol\";\nimport \"@openzeppelin/contracts/token/ERC721/extensions/ERC721Enumerable.sol\";\n\n/**\n * @title FoxyClan contract\n * @dev Extends ERC721 Non-Fungible Token Standard basic implementation\n */\ncontract FoxyClan is ERC721, ERC721Enumerable, Ownable {\n    string public FC_PROVENANCE;\n\n    bool public publicSaleIsActive = false;\n\n    bool public privateSaleIsActive = false;\n\n    string private _BaseURI;\n\n    bool public allowListisActive = false;\n\n    uint256 public constant MAX_SUPPLY = 20000;\n\n    uint256 public constant maxPublicFoxyMint = 20;\n\n    uint256 public constant publicFoxyPrice = 12500000000000000; //0.0125 ETH\n\n    uint256 public constant privateFoxyPrice = 7500000000000000; //0.0075 ETH\n\n    mapping(address => uint8) private _AllowList; //fonction clean allowlist\n\n    uint256[] public burnedTokenIds;\n\n    constructor() ERC721(\"FoxyClan\", \"FOXY\") Ownable(msg.sender) {}\n\n    /**\n     * @dev Sets the provenance hash for the collection.\n     * @param provenance The provenance hash.\n     */\n    function setProvenance(string memory provenance) external onlyOwner {\n        FC_PROVENANCE = provenance;\n    }\n\n    /*\n    * @dev Pause public sale if active, make active if paused\n    */\n    function flipPublicSaleState() external onlyOwner {\n        publicSaleIsActive = !publicSaleIsActive;\n    }\n\n    /*\n    * @dev Pause private sale if active, make active if paused\n    */\n    function flipPrivateSaleState() external onlyOwner {\n        privateSaleIsActive = !privateSaleIsActive;\n    }\n\n    /**\n     * @dev Sets the base URI for token URIs.\n     * @param uri The base URI.\n     */\n    function setBaseURI(string memory uri) external onlyOwner() {\n        _BaseURI = uri;\n    }\n\n    /**\n     * @dev Get the base URI for token URIs.\n     */\n    function _baseURI() internal view virtual override returns (string memory) {\n        return _BaseURI;\n    }\n\n\n    /**\n     * @dev Sets the allow list status.\n     */\n    function flipAllowListState() external onlyOwner {\n        allowListisActive = !allowListisActive;\n    }\n\n    /**\n     * @dev Sets the allow list for addresses and their corresponding mint limits.\n     * @param addresses An array of addresses that will be allowed to mint FoxyClan nfts.\n     * @param numAllowedToMint The number of tokens allowed to be minted for each address.\n     */\n    function setAllowList(address[] calldata addresses, uint8 numAllowedToMint) external onlyOwner {\n        for (uint256 i = 0; i < addresses.length; i++) {\n            _AllowList[addresses[i]] = numAllowedToMint;\n        }\n    }\n\n    /*\n     * @dev Returns the number of tokens available to mint for a specific address.\n     * @param addr The address to check.\n     * @return The number of tokens available to mint for a specific address.\n     */\n    function numAvailableToMint(address addr) external view returns (uint8) {\n        return _AllowList[addr];\n    }\n\n    /**\n     * @dev Mints tokens for addresses on the allow list.\n     * @param numberOfTokens The number of tokens to mint.\n    * \n    * Requirements:\n    * - The allow list must be active.\n    * - The sender must be on the allow list and have sufficient tokens available.\n    * - The total supply must not exceed the max supply.\n    * - The sender must send enough ether to cover the cost of minting.\n    */\n    function mintAllowList(uint8 numberOfTokens) external payable {\n        uint256 supply = totalSupply();\n        uint256 costToMint;\n        if (privateSaleIsActive) {\n            costToMint = privateFoxyPrice * numberOfTokens;\n        } else {\n            costToMint = publicFoxyPrice * numberOfTokens;\n        }\n        require(allowListisActive, \"Allow list is not active\");\n        require(numberOfTokens <= _AllowList[msg.sender], \"Exceeded max available to purchase\");\n        require(supply + numberOfTokens <= MAX_SUPPLY, \"Purchase would exceed max tokens\");\n        require(costToMint <= msg.value, \"Ether value sent is not correct\");\n\n        for (uint256 i = 0; i < numberOfTokens; i++) {\n            uint256 tokenId;\n            if (burnedTokenIds.length > 0) {\n                tokenId = burnedTokenIds[0];\n                burnedTokenIds.pop();\n            } else {\n                tokenId = totalSupply();\n            }\n            _safeMint(msg.sender, tokenId);\n            _AllowList[msg.sender] --;\n        }\n\n        if (msg.value > costToMint) {\n            uint256 excess = msg.value - costToMint;\n            (bool success, ) = msg.sender.call{value: excess}(\"\");\n            require(success, \"Refund failed\");\n        }\n    }\n\n    /**\n     * @dev Mints tokens for the public sale.\n     * @param numberOfTokens The number of tokens to mint.\n     * \n     * Requirements:\n     * - The sale must be active.\n     * - The number of tokens to be minted must not exceed the maximum number of public minting.\n     * - The total supply must not exceed the max supply.\n     * - The sender must send enough ether to cover the cost of minting.\n     */\n    function mint(uint numberOfTokens) public payable {\n        uint256 supply = totalSupply();\n        uint256 costToMint = publicFoxyPrice * numberOfTokens;\n        require(publicSaleIsActive, \"Sale must be active to mint Foxy\");\n        require(numberOfTokens <= maxPublicFoxyMint, \"Can only mint 10 tokens at a time\");\n        require(supply + numberOfTokens <= MAX_SUPPLY, \"Purchase would exceed max tokens\");\n        require(costToMint <= msg.value, \"Ether value sent is not correct\");\n\n        for (uint256 i = 0; i < numberOfTokens; i++) {\n            uint256 tokenId;\n\n            if (burnedTokenIds.length > 0) {\n                tokenId = burnedTokenIds[burnedTokenIds.length - 1];\n                burnedTokenIds.pop();\n            } else {\n                tokenId = totalSupply();\n            }\n            _safeMint(msg.sender, tokenId);\n        }\n        if (msg.value > costToMint) {\n            uint256 excess = msg.value - costToMint;\n            (bool success, ) = msg.sender.call{value: excess}(\"\");\n            require(success, \"Refund failed\");\n        }\n    }\n\n    function merge(uint tokenId1, uint tokenId2) external {\n        require(ownerOf(tokenId1) == msg.sender, \"You must own the token\");\n        require(ownerOf(tokenId2) == msg.sender, \"You must own the token\");\n        _burn(tokenId1);\n        _burn(tokenId2);\n        burnedTokenIds.push(tokenId2);\n        _safeMint(msg.sender, tokenId1);\n    }\n\n    /**\n     * @dev Checks if the contract implements a specific interface. \n     * This function is inherited from ERC721 and ERC721Enumerable and is essential for \n     * allowing other contracts and interfaces to interact correctly with this contract.\n     */\n    function supportsInterface(bytes4 interfaceId) public view virtual override(ERC721, ERC721Enumerable) returns (bool) {\n        return super.supportsInterface(interfaceId);\n    }\n\n    /**\n     * @dev Overridden from ERC721Enumerable.\n     */\n    function _update(address to, uint256 tokenId, address auth) internal virtual override(ERC721, ERC721Enumerable) returns (address) {\n        return super._update(to, tokenId, auth);\n    }\n\n    /**\n     * @dev Overridden from ERC721Enumerable.\n     */\n    function _increaseBalance(address account, uint128 amount) internal virtual override(ERC721, ERC721Enumerable) {\n        return super._increaseBalance(account, amount);\n    }\n\n    /**\n     * @dev Reserves a specified number of tokens for the contract owner.\n     * This function allow the creator to keep a certain number of tokens \n     * for future uses, such as giveaways, collaborations or special events.\n     */\n    function reserveFoxy(uint256 n) public onlyOwner {\n      uint supply = totalSupply();\n      uint i;\n      for (i = 0; i < n; i++) {\n          _safeMint(msg.sender, supply + i);\n      }\n    }\n    \n    /**\n     * @dev Allows the contract owner to withdraw accumulated funds from the contract.\n     */\n    function withdraw() public onlyOwner {\n        uint balance = address(this).balance;\n        payable(msg.sender).transfer(balance);\n    }\n\n}",
  "sourcePath": "C:\\Users\\Matca\\Documents\\web3\\contracts\\FoxyClan.sol",
  "compiler": {
    "name": "solc",
    "version": "0.8.28+commit.7893614a.Emscripten.clang"
  },
  "schemaVersion": "3.4.16",
  "updatedAt": "2024-12-07T10:27:54.476Z",
  "networkType": "ethereum",
  "devdoc": {
    "details": "Extends ERC721 Non-Fungible Token Standard basic implementation",
    "errors": {
      "ERC721EnumerableForbiddenBatchMint()": [
        {
          "details": "Batch mint is not allowed."
        }
      ],
      "ERC721IncorrectOwner(address,uint256,address)": [
        {
          "details": "Indicates an error related to the ownership over a particular token. Used in transfers.",
          "params": {
            "owner": "Address of the current owner of a token.",
            "sender": "Address whose tokens are being transferred.",
            "tokenId": "Identifier number of a token."
          }
        }
      ],
      "ERC721InsufficientApproval(address,uint256)": [
        {
          "details": "Indicates a failure with the `operator`s approval. Used in transfers.",
          "params": {
            "operator": "Address that may be allowed to operate on tokens without being their owner.",
            "tokenId": "Identifier number of a token."
          }
        }
      ],
      "ERC721InvalidApprover(address)": [
        {
          "details": "Indicates a failure with the `approver` of a token to be approved. Used in approvals.",
          "params": {
            "approver": "Address initiating an approval operation."
          }
        }
      ],
      "ERC721InvalidOperator(address)": [
        {
          "details": "Indicates a failure with the `operator` to be approved. Used in approvals.",
          "params": {
            "operator": "Address that may be allowed to operate on tokens without being their owner."
          }
        }
      ],
      "ERC721InvalidOwner(address)": [
        {
          "details": "Indicates that an address can't be an owner. For example, `address(0)` is a forbidden owner in EIP-20. Used in balance queries.",
          "params": {
            "owner": "Address of the current owner of a token."
          }
        }
      ],
      "ERC721InvalidReceiver(address)": [
        {
          "details": "Indicates a failure with the token `receiver`. Used in transfers.",
          "params": {
            "receiver": "Address to which tokens are being transferred."
          }
        }
      ],
      "ERC721InvalidSender(address)": [
        {
          "details": "Indicates a failure with the token `sender`. Used in transfers.",
          "params": {
            "sender": "Address whose tokens are being transferred."
          }
        }
      ],
      "ERC721NonexistentToken(uint256)": [
        {
          "details": "Indicates a `tokenId` whose `owner` is the zero address.",
          "params": {
            "tokenId": "Identifier number of a token."
          }
        }
      ],
      "ERC721OutOfBoundsIndex(address,uint256)": [
        {
          "details": "An `owner`'s token query was out of bounds for `index`. NOTE: The owner being `address(0)` indicates a global out of bounds index."
        }
      ],
      "OwnableInvalidOwner(address)": [
        {
          "details": "The owner is not a valid owner account. (eg. `address(0)`)"
        }
      ],
      "OwnableUnauthorizedAccount(address)": [
        {
          "details": "The caller account is not authorized to perform an operation."
        }
      ]
    },
    "events": {
      "Approval(address,address,uint256)": {
        "details": "Emitted when `owner` enables `approved` to manage the `tokenId` token."
      },
      "ApprovalForAll(address,address,bool)": {
        "details": "Emitted when `owner` enables or disables (`approved`) `operator` to manage all of its assets."
      },
      "Transfer(address,address,uint256)": {
        "details": "Emitted when `tokenId` token is transferred from `from` to `to`."
      }
    },
    "kind": "dev",
    "methods": {
      "approve(address,uint256)": {
        "details": "See {IERC721-approve}."
      },
      "balanceOf(address)": {
        "details": "See {IERC721-balanceOf}."
      },
      "flipAllowListState()": {
        "details": "Sets the allow list status."
      },
      "getApproved(uint256)": {
        "details": "See {IERC721-getApproved}."
      },
      "isApprovedForAll(address,address)": {
        "details": "See {IERC721-isApprovedForAll}."
      },
      "mint(uint256)": {
        "details": "Mints tokens for the public sale.",
        "params": {
          "numberOfTokens": "The number of tokens to mint.  Requirements: - The sale must be active. - The number of tokens to be minted must not exceed the maximum number of public minting. - The total supply must not exceed the max supply. - The sender must send enough ether to cover the cost of minting."
        }
      },
      "mintAllowList(uint8)": {
        "details": "Mints tokens for addresses on the allow list.",
        "params": {
          "numberOfTokens": "The number of tokens to mint.  Requirements: - The allow list must be active. - The sender must be on the allow list and have sufficient tokens available. - The total supply must not exceed the max supply. - The sender must send enough ether to cover the cost of minting."
        }
      },
      "name()": {
        "details": "See {IERC721Metadata-name}."
      },
      "owner()": {
        "details": "Returns the address of the current owner."
      },
      "ownerOf(uint256)": {
        "details": "See {IERC721-ownerOf}."
      },
      "renounceOwnership()": {
        "details": "Leaves the contract without owner. It will not be possible to call `onlyOwner` functions. Can only be called by the current owner. NOTE: Renouncing ownership will leave the contract without an owner, thereby disabling any functionality that is only available to the owner."
      },
      "reserveFoxy(uint256)": {
        "details": "Reserves a specified number of tokens for the contract owner. This function allow the creator to keep a certain number of tokens  for future uses, such as giveaways, collaborations or special events."
      },
      "safeTransferFrom(address,address,uint256)": {
        "details": "See {IERC721-safeTransferFrom}."
      },
      "safeTransferFrom(address,address,uint256,bytes)": {
        "details": "See {IERC721-safeTransferFrom}."
      },
      "setAllowList(address[],uint8)": {
        "details": "Sets the allow list for addresses and their corresponding mint limits.",
        "params": {
          "addresses": "An array of addresses that will be allowed to mint FoxyClan nfts.",
          "numAllowedToMint": "The number of tokens allowed to be minted for each address."
        }
      },
      "setApprovalForAll(address,bool)": {
        "details": "See {IERC721-setApprovalForAll}."
      },
      "setBaseURI(string)": {
        "details": "Sets the base URI for token URIs.",
        "params": {
          "uri": "The base URI."
        }
      },
      "setProvenance(string)": {
        "details": "Sets the provenance hash for the collection.",
        "params": {
          "provenance": "The provenance hash."
        }
      },
      "supportsInterface(bytes4)": {
        "details": "Checks if the contract implements a specific interface.  This function is inherited from ERC721 and ERC721Enumerable and is essential for  allowing other contracts and interfaces to interact correctly with this contract."
      },
      "symbol()": {
        "details": "See {IERC721Metadata-symbol}."
      },
      "tokenByIndex(uint256)": {
        "details": "See {IERC721Enumerable-tokenByIndex}."
      },
      "tokenOfOwnerByIndex(address,uint256)": {
        "details": "See {IERC721Enumerable-tokenOfOwnerByIndex}."
      },
      "tokenURI(uint256)": {
        "details": "See {IERC721Metadata-tokenURI}."
      },
      "totalSupply()": {
        "details": "See {IERC721Enumerable-totalSupply}."
      },
      "transferFrom(address,address,uint256)": {
        "details": "See {IERC721-transferFrom}."
      },
      "transferOwnership(address)": {
        "details": "Transfers ownership of the contract to a new account (`newOwner`). Can only be called by the current owner."
      },
      "withdraw()": {
        "details": "Allows the contract owner to withdraw accumulated funds from the contract."
      }
    },
    "title": "FoxyClan contract",
    "version": 1
  },
  "userdoc": {
    "kind": "user",
    "methods": {},
    "version": 1
  }
}